{
  "_format": "hh-sol-artifact-1",
  "contractName": "ERC20",
  "sourceName": "contracts/ERC20Contract.sol",
  "abi": [
    {
      "inputs": [
        {
          "internalType": "string",
          "name": "name_",
          "type": "string"
        },
        {
          "internalType": "string",
          "name": "symbol_",
          "type": "string"
        }
      ],
      "stateMutability": "nonpayable",
      "type": "constructor"
    },
    {
      "anonymous": false,
      "inputs": [
        {
          "indexed": true,
          "internalType": "address",
          "name": "owner",
          "type": "address"
        },
        {
          "indexed": true,
          "internalType": "address",
          "name": "spender",
          "type": "address"
        },
        {
          "indexed": false,
          "internalType": "uint256",
          "name": "value",
          "type": "uint256"
        }
      ],
      "name": "Approval",
      "type": "event"
    },
    {
      "anonymous": false,
      "inputs": [
        {
          "indexed": true,
          "internalType": "address",
          "name": "minter",
          "type": "address"
        },
        {
          "indexed": false,
          "internalType": "uint256",
          "name": "amountMinted",
          "type": "uint256"
        }
      ],
      "name": "MintToken",
      "type": "event"
    },
    {
      "anonymous": false,
      "inputs": [
        {
          "indexed": true,
          "internalType": "address",
          "name": "from",
          "type": "address"
        },
        {
          "indexed": true,
          "internalType": "address",
          "name": "to",
          "type": "address"
        },
        {
          "indexed": false,
          "internalType": "uint256",
          "name": "value",
          "type": "uint256"
        }
      ],
      "name": "Transfer",
      "type": "event"
    },
    {
      "inputs": [
        {
          "internalType": "address",
          "name": "owner",
          "type": "address"
        },
        {
          "internalType": "address",
          "name": "spender",
          "type": "address"
        },
        {
          "internalType": "uint256",
          "name": "value",
          "type": "uint256"
        },
        {
          "internalType": "bool",
          "name": "emitEvent",
          "type": "bool"
        }
      ],
      "name": "_approve",
      "outputs": [],
      "stateMutability": "nonpayable",
      "type": "function"
    },
    {
      "inputs": [],
      "name": "_owner",
      "outputs": [
        {
          "internalType": "address",
          "name": "",
          "type": "address"
        }
      ],
      "stateMutability": "view",
      "type": "function"
    },
    {
      "inputs": [
        {
          "internalType": "address",
          "name": "owner",
          "type": "address"
        },
        {
          "internalType": "address",
          "name": "spender",
          "type": "address"
        }
      ],
      "name": "allowance",
      "outputs": [
        {
          "internalType": "uint256",
          "name": "",
          "type": "uint256"
        }
      ],
      "stateMutability": "view",
      "type": "function"
    },
    {
      "inputs": [
        {
          "internalType": "address",
          "name": "account",
          "type": "address"
        }
      ],
      "name": "balanceOf",
      "outputs": [
        {
          "internalType": "uint256",
          "name": "",
          "type": "uint256"
        }
      ],
      "stateMutability": "view",
      "type": "function"
    },
    {
      "inputs": [],
      "name": "getDecimals",
      "outputs": [
        {
          "internalType": "uint8",
          "name": "",
          "type": "uint8"
        }
      ],
      "stateMutability": "view",
      "type": "function"
    },
    {
      "inputs": [],
      "name": "getTokenName",
      "outputs": [
        {
          "internalType": "string",
          "name": "",
          "type": "string"
        }
      ],
      "stateMutability": "view",
      "type": "function"
    },
    {
      "inputs": [],
      "name": "getTokenSymbol",
      "outputs": [
        {
          "internalType": "string",
          "name": "",
          "type": "string"
        }
      ],
      "stateMutability": "view",
      "type": "function"
    },
    {
      "inputs": [
        {
          "internalType": "uint256",
          "name": "_amountOfToken",
          "type": "uint256"
        }
      ],
      "name": "mintToken",
      "outputs": [],
      "stateMutability": "nonpayable",
      "type": "function"
    },
    {
      "inputs": [],
      "name": "totalSupply",
      "outputs": [
        {
          "internalType": "uint256",
          "name": "",
          "type": "uint256"
        }
      ],
      "stateMutability": "view",
      "type": "function"
    },
    {
      "inputs": [
        {
          "internalType": "address",
          "name": "receiver",
          "type": "address"
        },
        {
          "internalType": "uint256",
          "name": "value",
          "type": "uint256"
        }
      ],
      "name": "transfer",
      "outputs": [
        {
          "internalType": "bool",
          "name": "",
          "type": "bool"
        }
      ],
      "stateMutability": "nonpayable",
      "type": "function"
    },
    {
      "inputs": [
        {
          "internalType": "address",
          "name": "from",
          "type": "address"
        },
        {
          "internalType": "address",
          "name": "to",
          "type": "address"
        },
        {
          "internalType": "uint256",
          "name": "value",
          "type": "uint256"
        }
      ],
      "name": "transferFrom",
      "outputs": [
        {
          "internalType": "bool",
          "name": "",
          "type": "bool"
        }
      ],
      "stateMutability": "nonpayable",
      "type": "function"
    }
  ],
  "bytecode": "0x608060405234801561001057600080fd5b506040516117883803806117888339818101604052810190610032919061020f565b816003908161004191906104a8565b50806004908161005191906104a8565b5033600560006101000a81548173ffffffffffffffffffffffffffffffffffffffff021916908373ffffffffffffffffffffffffffffffffffffffff160217905550505061057a565b6000604051905090565b600080fd5b600080fd5b600080fd5b600080fd5b6000601f19601f8301169050919050565b7f4e487b7100000000000000000000000000000000000000000000000000000000600052604160045260246000fd5b610101826100b8565b810181811067ffffffffffffffff821117156101205761011f6100c9565b5b80604052505050565b600061013361009a565b905061013f82826100f8565b919050565b600067ffffffffffffffff82111561015f5761015e6100c9565b5b610168826100b8565b9050602081019050919050565b60005b83811015610193578082015181840152602081019050610178565b60008484015250505050565b60006101b26101ad84610144565b610129565b9050828152602081018484840111156101ce576101cd6100b3565b5b6101d9848285610175565b509392505050565b600082601f8301126101f6576101f56100ae565b5b815161020684826020860161019f565b91505092915050565b60008060408385031215610226576102256100a4565b5b600083015167ffffffffffffffff811115610244576102436100a9565b5b610250858286016101e1565b925050602083015167ffffffffffffffff811115610271576102706100a9565b5b61027d858286016101e1565b9150509250929050565b600081519050919050565b7f4e487b7100000000000000000000000000000000000000000000000000000000600052602260045260246000fd5b600060028204905060018216806102d957607f821691505b6020821081036102ec576102eb610292565b5b50919050565b60008190508160005260206000209050919050565b60006020601f8301049050919050565b600082821b905092915050565b6000600883026103547fffffffffffffffffffffffffffffffffffffffffffffffffffffffffffffffff82610317565b61035e8683610317565b95508019841693508086168417925050509392505050565b6000819050919050565b6000819050919050565b60006103a56103a061039b84610376565b610380565b610376565b9050919050565b6000819050919050565b6103bf8361038a565b6103d36103cb826103ac565b848454610324565b825550505050565b600090565b6103e86103db565b6103f38184846103b6565b505050565b5b818110156104175761040c6000826103e0565b6001810190506103f9565b5050565b601f82111561045c5761042d816102f2565b61043684610307565b81016020851015610445578190505b61045961045185610307565b8301826103f8565b50505b505050565b600082821c905092915050565b600061047f60001984600802610461565b1980831691505092915050565b6000610498838361046e565b9150826002028217905092915050565b6104b182610287565b67ffffffffffffffff8111156104ca576104c96100c9565b5b6104d482546102c1565b6104df82828561041b565b600060209050601f8311600181146105125760008415610500578287015190505b61050a858261048c565b865550610572565b601f198416610520866102f2565b60005b8281101561054857848901518255600182019150602085019450602081019050610523565b868310156105655784890151610561601f89168261046e565b8355505b6001600288020188555050505b505050505050565b6111ff806105896000396000f3fe608060405234801561001057600080fd5b50600436106100a95760003560e01c8063b2bdfa7b11610071578063b2bdfa7b1461017a578063c634d03214610198578063d3e591d7146101b4578063dd62ed3e146101d0578063f0141d8414610200578063f1850af81461021e576100a9565b806318160ddd146100ae57806323b872dd146100cc57806370a08231146100fc578063862b092b1461012c578063a9059cbb1461014a575b600080fd5b6100b661023c565b6040516100c39190610a5f565b60405180910390f35b6100e660048036038101906100e19190610b09565b610246565b6040516100f39190610b77565b60405180910390f35b61011660048036038101906101119190610b92565b61026e565b6040516101239190610a5f565b60405180910390f35b6101346102b6565b6040516101419190610c4f565b60405180910390f35b610164600480360381019061015f9190610c71565b610348565b6040516101719190610b77565b60405180910390f35b610182610364565b60405161018f9190610cc0565b60405180910390f35b6101b260048036038101906101ad9190610cdb565b61038a565b005b6101ce60048036038101906101c99190610d34565b610484565b005b6101ea60048036038101906101e59190610d9b565b610655565b6040516101f79190610a5f565b60405180910390f35b6102086106dc565b6040516102159190610df7565b60405180910390f35b6102266106e5565b6040516102339190610c4f565b60405180910390f35b6000600254905090565b600080339050610257858285610777565b6102628585856107dd565b60019150509392505050565b60008060008373ffffffffffffffffffffffffffffffffffffffff1673ffffffffffffffffffffffffffffffffffffffff168152602001908152602001600020549050919050565b6060600380546102c590610e41565b80601f01602080910402602001604051908101604052809291908181526020018280546102f190610e41565b801561033e5780601f106103135761010080835404028352916020019161033e565b820191906000526020600020905b81548152906001019060200180831161032157829003601f168201915b5050505050905090565b6000803390506103598185856107dd565b600191505092915050565b600560009054906101000a900473ffffffffffffffffffffffffffffffffffffffff1681565b600560009054906101000a900473ffffffffffffffffffffffffffffffffffffffff1673ffffffffffffffffffffffffffffffffffffffff163373ffffffffffffffffffffffffffffffffffffffff161461041a576040517f08c379a000000000000000000000000000000000000000000000000000000000815260040161041190610ebe565b60405180910390fd5b806002600082825461042c9190610f0d565b925050819055503373ffffffffffffffffffffffffffffffffffffffff167fdcdea898caf5576419f89caf69301592a4758349a0bd62300b58849213420a72826040516104799190610a5f565b60405180910390a250565b600073ffffffffffffffffffffffffffffffffffffffff168473ffffffffffffffffffffffffffffffffffffffff16036104f3576040517f08c379a00000000000000000000000000000000000000000000000000000000081526004016104ea90610f8d565b60405180910390fd5b600073ffffffffffffffffffffffffffffffffffffffff168373ffffffffffffffffffffffffffffffffffffffff1603610562576040517f08c379a000000000000000000000000000000000000000000000000000000000815260040161055990610ff9565b60405180910390fd5b81600160008673ffffffffffffffffffffffffffffffffffffffff1673ffffffffffffffffffffffffffffffffffffffff16815260200190815260200160002060008573ffffffffffffffffffffffffffffffffffffffff1673ffffffffffffffffffffffffffffffffffffffff16815260200190815260200160002081905550801561064f578273ffffffffffffffffffffffffffffffffffffffff168473ffffffffffffffffffffffffffffffffffffffff167f8c5be1e5ebec7d5bd14f71427d1e84f3dd0314c0f7b2291e5b200ac8c7c3b925846040516106469190610a5f565b60405180910390a35b50505050565b6000600160008473ffffffffffffffffffffffffffffffffffffffff1673ffffffffffffffffffffffffffffffffffffffff16815260200190815260200160002060008373ffffffffffffffffffffffffffffffffffffffff1673ffffffffffffffffffffffffffffffffffffffff16815260200190815260200160002054905092915050565b60006012905090565b6060600480546106f490610e41565b80601f016020809104026020016040519081016040528092919081815260200182805461072090610e41565b801561076d5780601f106107425761010080835404028352916020019161076d565b820191906000526020600020905b81548152906001019060200180831161075057829003601f168201915b5050505050905090565b60006107838484610655565b9050818110156107c8576040517f08c379a00000000000000000000000000000000000000000000000000000000081526004016107bf90611065565b60405180910390fd5b6107d784848484036000610484565b50505050565b600073ffffffffffffffffffffffffffffffffffffffff168373ffffffffffffffffffffffffffffffffffffffff160361084c576040517f08c379a0000000000000000000000000000000000000000000000000000000008152600401610843906110d1565b60405180910390fd5b600073ffffffffffffffffffffffffffffffffffffffff168273ffffffffffffffffffffffffffffffffffffffff16036108bb576040517f08c379a00000000000000000000000000000000000000000000000000000000081526004016108b29061113d565b60405180910390fd5b60008060008573ffffffffffffffffffffffffffffffffffffffff1673ffffffffffffffffffffffffffffffffffffffff16815260200190815260200160002054905081811015610941576040517f08c379a0000000000000000000000000000000000000000000000000000000008152600401610938906111a9565b60405180910390fd5b8181036000808673ffffffffffffffffffffffffffffffffffffffff1673ffffffffffffffffffffffffffffffffffffffff16815260200190815260200160002081905550816000808573ffffffffffffffffffffffffffffffffffffffff1673ffffffffffffffffffffffffffffffffffffffff16815260200190815260200160002060008282546109d49190610f0d565b925050819055508273ffffffffffffffffffffffffffffffffffffffff168473ffffffffffffffffffffffffffffffffffffffff167fddf252ad1be2c89b69c2b068fc378daa952ba7f163c4a11628f55a4df523b3ef84604051610a389190610a5f565b60405180910390a350505050565b6000819050919050565b610a5981610a46565b82525050565b6000602082019050610a746000830184610a50565b92915050565b600080fd5b600073ffffffffffffffffffffffffffffffffffffffff82169050919050565b6000610aaa82610a7f565b9050919050565b610aba81610a9f565b8114610ac557600080fd5b50565b600081359050610ad781610ab1565b92915050565b610ae681610a46565b8114610af157600080fd5b50565b600081359050610b0381610add565b92915050565b600080600060608486031215610b2257610b21610a7a565b5b6000610b3086828701610ac8565b9350506020610b4186828701610ac8565b9250506040610b5286828701610af4565b9150509250925092565b60008115159050919050565b610b7181610b5c565b82525050565b6000602082019050610b8c6000830184610b68565b92915050565b600060208284031215610ba857610ba7610a7a565b5b6000610bb684828501610ac8565b91505092915050565b600081519050919050565b600082825260208201905092915050565b60005b83811015610bf9578082015181840152602081019050610bde565b60008484015250505050565b6000601f19601f8301169050919050565b6000610c2182610bbf565b610c2b8185610bca565b9350610c3b818560208601610bdb565b610c4481610c05565b840191505092915050565b60006020820190508181036000830152610c698184610c16565b905092915050565b60008060408385031215610c8857610c87610a7a565b5b6000610c9685828601610ac8565b9250506020610ca785828601610af4565b9150509250929050565b610cba81610a9f565b82525050565b6000602082019050610cd56000830184610cb1565b92915050565b600060208284031215610cf157610cf0610a7a565b5b6000610cff84828501610af4565b91505092915050565b610d1181610b5c565b8114610d1c57600080fd5b50565b600081359050610d2e81610d08565b92915050565b60008060008060808587031215610d4e57610d4d610a7a565b5b6000610d5c87828801610ac8565b9450506020610d6d87828801610ac8565b9350506040610d7e87828801610af4565b9250506060610d8f87828801610d1f565b91505092959194509250565b60008060408385031215610db257610db1610a7a565b5b6000610dc085828601610ac8565b9250506020610dd185828601610ac8565b9150509250929050565b600060ff82169050919050565b610df181610ddb565b82525050565b6000602082019050610e0c6000830184610de8565b92915050565b7f4e487b7100000000000000000000000000000000000000000000000000000000600052602260045260246000fd5b60006002820490506001821680610e5957607f821691505b602082108103610e6c57610e6b610e12565b5b50919050565b7f4f6e6c7920746865206f776e6572000000000000000000000000000000000000600082015250565b6000610ea8600e83610bca565b9150610eb382610e72565b602082019050919050565b60006020820190508181036000830152610ed781610e9b565b9050919050565b7f4e487b7100000000000000000000000000000000000000000000000000000000600052601160045260246000fd5b6000610f1882610a46565b9150610f2383610a46565b9250828201905080821115610f3b57610f3a610ede565b5b92915050565b7f496e76616c6964206f776e6572204163636f756e740000000000000000000000600082015250565b6000610f77601583610bca565b9150610f8282610f41565b602082019050919050565b60006020820190508181036000830152610fa681610f6a565b9050919050565b7f496e76616c6964207370656e646572206163636f756e74000000000000000000600082015250565b6000610fe3601783610bca565b9150610fee82610fad565b602082019050919050565b6000602082019050818103600083015261101281610fd6565b9050919050565b7f496e73756666696369656e742042616c616e6365000000000000000000000000600082015250565b600061104f601483610bca565b915061105a82611019565b602082019050919050565b6000602082019050818103600083015261107e81611042565b9050919050565b7f496e76616c69642073656e646572000000000000000000000000000000000000600082015250565b60006110bb600e83610bca565b91506110c682611085565b602082019050919050565b600060208201905081810360008301526110ea816110ae565b9050919050565b7f496e76616c696420526563697665720000000000000000000000000000000000600082015250565b6000611127600f83610bca565b9150611132826110f1565b602082019050919050565b600060208201905081810360008301526111568161111a565b9050919050565b7f496e73756666696369656e742062616c616e6365000000000000000000000000600082015250565b6000611193601483610bca565b915061119e8261115d565b602082019050919050565b600060208201905081810360008301526111c281611186565b905091905056fea2646970667358221220668e8a114cd33c30c1d5c365939357e28dd484f66be0ad390ef26bbebf81335864736f6c634300081c0033",
  "linkReferences": {},
  "deployedLinkReferences": {}
}